:100AE500020E0001021200010210000002140000B3
:100AF50002080000020A0000020C000002160000B5
:100B0600E4FDFCC3ED9FEE6480F8EC64809850072A
:070B16000DBD00010C80EC95
:010B1D0022B5
:100A1200E4FBFAC3EB9408EA6480948050688BA0EC
:100A2200AF03E509AE08A807088006CEA2E713CEF9
:100A320013D8F81392A4AF03E50DAE0CA8070880F3
:100A420006CEA2E713CE13D8F81392A7AF03E51789
:100A5200AE16A807088006CEA2E713CE13D8F81365
:100A620092A6AF03E50BAE0AA807088006CEA2E75E
:100A720013CE13D8F81392A50BBB00010A7F327E66
:060A820000120B06808D3E
:010A8800224B
:0A0B1E00E50FC454F02513F5802202
:1008500030B72CA2B5E43325E0FFA2B6E43325E09F
:1008600025E04FFFA2B4E4334FFF74017E00A807D8
:10087000088005C333CE33CED8F94209EE420830A2
:10088000972CA295E43325E0FFA296E43325E025DA
:10089000E04FFFA294E4334FFF74017E00A80708E5
:1008A0008005C333CE33CED8F9420DEE420C3093DF
:1008B0002CA291E43325E0FFA292E43325E025E069
:1008C0004FFFA290E4334FFF74017E00A807088019
:1008D00005C333CE33CED8F94217EE421630B32CCF
:1008E000A2B1E43325E0FFA2B2E43325E025E04FD6
:1008F000FFA2B0E4334FFF74017E00A80708800513
:0D090000C333CE33CED8F9420BEE420A22AB
:0F099900751D00751E00751F0E7B007A00791604
:1009A8008B1A8A1B891CAB1DAA1EA91F120ABA140E
:1009B800FFAB1AAA1BA91C120ABAAEF0A807088036
:1009C80006CEA2E713CE13D8F8FFAB1DAA1EA91FA7
:1009D800120ABA14FDEFA805088005C333CE33CE3A
:1009E800D8F9F4FFEEF4FEAB1AAA1BA91C120ABA36
:1009F800FDEE55F0FEEF5DD39400EE6480948040E8
:0A0A0800057E007F0122E4FEFF22BC
:1005DC00E51164014510600302067BAD0FED14FFBD
:1005EC0074017E00A807088005C333CE33CED8F93A
:1005FC00FBAA06F4FFEAF4FEEF5217EE5216EF5286
:10060C0009EE5208E509AE08A805088006CEA2E757
:10061C0013CE13D8F8D39400EE6480948040030278
:10062C000712AD0FE517AE16A805088006CEA2E797
:10063C0013CE13D8F8D39400EE6480948040030258
:10064C000712E50DAE0CA805088006CEA2E713CE66
:10065C0013D8F8D39400EE64809480400302071200
:10066C00EBF4FFEAF4FEEF520DEE520C020712E52A
:10067C0011640245106003020712E50F14FF7401A8
:10068C007E00A807088005C333CE33CED8F9F4FF1B
:10069C00EEF4FEEF520DEE520CEF5209EE520875CD
:1006AC001D00751E00751F0E7B007A00790812095B
:1006BC00A8D3EF9400EE64809480504A751D0075A9
:1006CC001E00751F0E7B007A00790C1209A8D3EF5F
:1006DC009400EE64809480502D120999D3EF94000D
:1006EC00EE64809480501FE50F14FF74017E00A807
:1006FC0007088005C333CE33CED8F9F4FFEEF4FEF1
:10070C00EF5217EE5216E51564014514600302070B
:10071C00AFAD13ED14FF74017E00A807088005C36C
:10072C0033CE33CED8F9FBAA06F4FFEAF4FEEF522F
:10073C0017EE5216EF520BEE520AE509AE08A80559
:10074C00088006CEA2E713CE13D8F8D39400EE643B
:10075C00809480400302084FAD13E517AE16A80530
:10076C00088006CEA2E713CE13D8F8D39400EE641B
:10077C00809480400302084FE50DAE0CA80508805C
:10078C0006CEA2E713CE13D8F8D39400EE6480946F
:10079C0080400302084FEBF4FFEAF4FEEF520DEE3B
:1007AC00520C22E51564024514600302084FE51350
:1007BC0014FF74017E00A807088005C333CE33CE26
:1007CC00D8F9F4FFEEF4FEEF520DEE520CEF520B93
:1007DC00EE520A751D00751E00751F127B007A0003
:1007EC0079081209A8D3EF9400EE648094805053DA
:1007FC00751D00751E00751F127B007A00790C1296
:10080C0009A8D3EF9400EE648094805036751D00D7
:10081C00751E00751F121209A2D3EF9400EE6480AE
:10082C009480501FE51314FF74017E00A807088004
:10083C0005C333CE33CED8F9F4FFEEF4FEEF5217E6
:04084C00EE52162230
:10000300E51145107056E509AE08A80F088006CE25
:10001300A2E713CE13D8F8D39400EE648094804003
:1000230011751000751101050FE50F702C050E02F7
:1000330001CF751D00751E00751F0E7B007A0079B8
:10004300081209A8EF4E70030201CF751000751155
:1000530002E50F150F7002150E0201CFE5116401C1
:1000630045106003020121AD0FE509AE08A805089C
:100073008006CEA2E713CE13D8F8D39400EE6480A3
:100083009480501BE517AE16A805088006CEA2E79C
:1000930013CE13D8F8D39400EE64809480400B05FC
:1000A3000FE50F7002050E0201CFE50DAE0CA80F90
:1000B300088006CEA2E713CE13D8F8D39400EE64DB
:1000C300809480400B050FE50F7002050E0201CFEF
:1000D300751D00751E00751F0E7B007A00790812CE
:1000E30009A8EF4E7024F51D751E00751F0EFB1237
:1000F30009A4EF4E7014F51D751E00751F0EFB7AD3
:1001030000790C1209A8EF4E6011751000751102E9
:10011300E50F150F7002150E0201CF0201CA751DFE
:1001230000751E00751F0E7B007A0079081209A85E
:10013300EF4E7014F51D751E00751F0EFB7A0079C6
:100143000C1209A8EF4E600BE50F150F7002150E88
:100153000201CF120999EF4E600AE50F150F7002E5
:10016300150E8068AD0FE509AE08A805088006CE18
:10017300A2E713CE13D8F8D39400EE648094805092
:1001830036E517AE16A805088006CEA2E713CE13F0
:10019300D8F8D39400EE64809480501BE50DAE0C28
:1001A300A80F088006CEA2E713CE13D8F8D3940085
:1001B300EE648094804010751000751101050FE501
:1001C3000F7009050E8005E4F510F511E5154514CA
:1001D3007056E50BAE0AA813088006CEA2E713CE2D
:1001E30013D8F8D39400EE64809480401175140002
:1001F3007515010513E513702C05120203A4751D73
:1002030000751E00751F127B007A00790A1209A877
:10021300EF4E70030203A4751400751502E5131560
:1002230013700215120203A4E5156401451460035B
:100233000202EDAD13E50BAE0AA805088006CEA2B7
:10024300E713CE13D8F8D39400EE64809480501B48
:10025300E517AE16A805088006CEA2E713CE13D87D
:10026300F8D39400EE64809480400B0513E513707B
:100273000205120203A4E50DAE0CA813088006CEF6
:10028300A2E713CE13D8F8D39400EE648094804091
:100293000B0513E513700205120203A4751D007507
:1002A3001E00751F127B007A00790A1209A8EF4E0F
:1002B3007024F51D751E00751F12FB1209A4EF4E65
:1002C3007014F51D751E00751F12FB7A00790C1250
:1002D30009A8EF4E6011751400751502E513151387
:1002E300700215120203A402039F751D00751E0000
:1002F300751F127B007A00790A1209A8EF4E701459
:10030300F51D751E00751F12FB7A00790C1209A8E2
:10031300EF4E600BE5131513700215120203A4755B
:100323001D00751E00751F121209A2EF4E600AE52B
:10033300131513700215128068AD13E50BAE0AA8EE
:1003430005088006CEA2E713CE13D8F8D39400EEA7
:10035300648094805036E517AE16A805088006CE53
:10036300A2E713CE13D8F8D39400EE6480948050A0
:100373001BE50DAE0CA813088006CEA2E713CE131F
:10038300D8F8D39400EE64809480401075140075FF
:1003930015010513E513700905128005E4F514F53D
:1003A30015E51145106003020525E51545146003A5
:1003B300020525D3E50F9513E5126480F8E50E6475
:1003C3008098500302047CAD0FE517AE16A805080C
:1003D3008006CEA2E713CE13D8F8D39400EE648040
:1003E3009480501BE50DAE0CA805088006CEA2E74D
:1003F30013CE13D8F8D39400EE64809480400E7526
:100403001000751101050FE50F7002050E751D0033
:10041300751E00751F121209A2EF4E7014F51D759B
:100423001E00751F12FB7A00790C1209A8EF4E60AB
:100433000E751400751502E513151370021512E5F8
:1004430011451060030205D9E51545146003020543
:10045300D9E51745167009E50D450C70030205D95A
:10046300E50F150F7002150E7510007511020513B7
:10047300E513700205120205D3AD13E517AE16A8F6
:1004830005088006CEA2E713CE13D8F8D39400EE66
:1004930064809480501BE50DAE0CA805088006CE41
:1004A300A2E713CE13D8F8D39400EE64809480406F
:1004B3000E7514007515010513E51370020512126C
:1004C3000999EF4E7014F51D751E00751F0EFB7A0A
:1004D30000790C1209A8EF4E600E75100075110219
:1004E300E50F150F7002150EE511451060030205A7
:1004F300D9E515451460030205D9E51745167009BA
:10050300E50D450C70030205D9050FE50F700205D3
:100513000E751000751101E5131513700215120203
:1005230005A8E51145107057E515640145147024BD
:10053300F51D751E00751F0EFB1209A4EF4E700307
:100543000205D9E50F150F7002150E751000751110
:10055300020205D9E50DAE0CA80F088006CEA2E76E
:1005630013CE13D8F8D39400EE64809480406705CB
:100573000FE50F7002050E7510007511018057E528
:100583001545147051E511640145107020F51D7572
:100593001E00751F12FB1209A4EF4E6039E51315F7
:1005A30013700215127514007515028029E50DAE3E
:1005B3000CA813088006CEA2E713CE13D8F8D39461
:1005C30000EE64809480400E0513E513700205125B
:0905D3007514007515010205DC28
:100A8900E4F518F519120A12120B1E120850120079
:100A990003120B1EC3E5199478E5186480948050FD
:100AA900DF120850120A120519E51970E7051880B6
:010AB900E359
:0300000002090DE5
:0C090D00787FE4F6D8FD75811F020954C4
:100ABA00BB010A89828A83E0F5F0A3E02250068707
:100ACA00F009E71922BBFE07E3F5F009E3192289C9
:0B0ADA00828A83E493F5F074019322FC
:10091900020A89E493A3F8E493A34003F68001F261
:1009290008DFF48029E493A3F85407240CC8C333DF
:10093900C4540F4420C8834004F456800146F6DFAE
:10094900E4800B0102040810204080900AE5E47E4F
:10095900019360BCA3FF543F30E509541FFEE493A3
:10096900A360010ECF54C025E060A840B8E493A36A
:10097900FAE493A3F8E493A3C8C582C8CAC583CA95
:10098900F0A3C8C582C8CAC583CADFE9DEE780BE4D
:010B050000EF
:00000001FF
